{
  "contractName": "KYC",
  "abi": [
    {
      "inputs": [
        {
          "internalType": "address",
          "name": "",
          "type": "address"
        }
      ],
      "name": "users",
      "outputs": [
        {
          "internalType": "string",
          "name": "name",
          "type": "string"
        },
        {
          "internalType": "string",
          "name": "birthDate",
          "type": "string"
        }
      ],
      "stateMutability": "view",
      "type": "function",
      "constant": true
    },
    {
      "inputs": [
        {
          "internalType": "string",
          "name": "_name",
          "type": "string"
        },
        {
          "internalType": "string",
          "name": "_birthDate",
          "type": "string"
        }
      ],
      "name": "storeKYC",
      "outputs": [],
      "stateMutability": "nonpayable",
      "type": "function"
    },
    {
      "inputs": [
        {
          "internalType": "address",
          "name": "_user",
          "type": "address"
        }
      ],
      "name": "getKYC",
      "outputs": [
        {
          "internalType": "string",
          "name": "",
          "type": "string"
        },
        {
          "internalType": "string",
          "name": "",
          "type": "string"
        }
      ],
      "stateMutability": "view",
      "type": "function",
      "constant": true
    }
  ],
  "bytecode": "0x608060405234801561001057600080fd5b50610869806100206000396000f3fe608060405234801561001057600080fd5b50600436106100415760003560e01c80634d1a687d14610046578063a87430ba14610077578063e70d863c146100a8575b600080fd5b610060600480360381019061005b9190610529565b6100c4565b60405161006e9291906105ef565b60405180910390f35b610091600480360381019061008c9190610529565b61024c565b60405161009f9291906105ef565b60405180910390f35b6100c260048036038101906100bd919061075b565b610380565b005b60608060008060008573ffffffffffffffffffffffffffffffffffffffff1673ffffffffffffffffffffffffffffffffffffffff16815260200190815260200160002060405180604001604052908160008201805461012290610802565b80601f016020809104026020016040519081016040528092919081815260200182805461014e90610802565b801561019b5780601f106101705761010080835404028352916020019161019b565b820191906000526020600020905b81548152906001019060200180831161017e57829003601f168201915b505050505081526020016001820180546101b490610802565b80601f01602080910402602001604051908101604052809291908181526020018280546101e090610802565b801561022d5780601f106102025761010080835404028352916020019161022d565b820191906000526020600020905b81548152906001019060200180831161021057829003601f168201915b5050505050815250509050806000015181602001519250925050915091565b600060205280600052604060002060009150905080600001805461026f90610802565b80601f016020809104026020016040519081016040528092919081815260200182805461029b90610802565b80156102e85780601f106102bd576101008083540402835291602001916102e8565b820191906000526020600020905b8154815290600101906020018083116102cb57829003601f168201915b5050505050908060010180546102fd90610802565b80601f016020809104026020016040519081016040528092919081815260200182805461032990610802565b80156103765780601f1061034b57610100808354040283529160200191610376565b820191906000526020600020905b81548152906001019060200180831161035957829003601f168201915b5050505050905082565b6040518060400160405280838152602001828152506000803373ffffffffffffffffffffffffffffffffffffffff1673ffffffffffffffffffffffffffffffffffffffff16815260200190815260200160002060008201518160000190805190602001906103ef929190610414565b50602082015181600101908051906020019061040c929190610414565b509050505050565b82805461042090610802565b90600052602060002090601f0160209004810192826104425760008555610489565b82601f1061045b57805160ff1916838001178555610489565b82800160010185558215610489579182015b8281111561048857825182559160200191906001019061046d565b5b509050610496919061049a565b5090565b5b808211156104b357600081600090555060010161049b565b5090565b6000604051905090565b600080fd5b600080fd5b600073ffffffffffffffffffffffffffffffffffffffff82169050919050565b60006104f6826104cb565b9050919050565b610506816104eb565b811461051157600080fd5b50565b600081359050610523816104fd565b92915050565b60006020828403121561053f5761053e6104c1565b5b600061054d84828501610514565b91505092915050565b600081519050919050565b600082825260208201905092915050565b60005b83811015610590578082015181840152602081019050610575565b8381111561059f576000848401525b50505050565b6000601f19601f8301169050919050565b60006105c182610556565b6105cb8185610561565b93506105db818560208601610572565b6105e4816105a5565b840191505092915050565b6000604082019050818103600083015261060981856105b6565b9050818103602083015261061d81846105b6565b90509392505050565b600080fd5b600080fd5b7f4e487b7100000000000000000000000000000000000000000000000000000000600052604160045260246000fd5b610668826105a5565b810181811067ffffffffffffffff8211171561068757610686610630565b5b80604052505050565b600061069a6104b7565b90506106a6828261065f565b919050565b600067ffffffffffffffff8211156106c6576106c5610630565b5b6106cf826105a5565b9050602081019050919050565b82818337600083830152505050565b60006106fe6106f9846106ab565b610690565b90508281526020810184848401111561071a5761071961062b565b5b6107258482856106dc565b509392505050565b600082601f83011261074257610741610626565b5b81356107528482602086016106eb565b91505092915050565b60008060408385031215610772576107716104c1565b5b600083013567ffffffffffffffff8111156107905761078f6104c6565b5b61079c8582860161072d565b925050602083013567ffffffffffffffff8111156107bd576107bc6104c6565b5b6107c98582860161072d565b9150509250929050565b7f4e487b7100000000000000000000000000000000000000000000000000000000600052602260045260246000fd5b6000600282049050600182168061081a57607f821691505b60208210810361082d5761082c6107d3565b5b5091905056fea264697066735822122003550d79befd1a88508c6a633623c328a3f72520e5f57b7d832c7e7e60e261bb64736f6c634300080d0033",
  "immutableReferences": {},
  "source": "pragma solidity ^0.8.0;\r\n\r\ncontract KYC {\r\n    struct User {\r\n        string name;\r\n        string birthDate;\r\n    }\r\n\r\n    mapping(address => User) public users;\r\n\r\n    function storeKYC(string memory _name, string memory _birthDate) public {\r\n        users[msg.sender] = User(_name, _birthDate);\r\n    }\r\n\r\n    function getKYC(address _user) public view returns (string memory, string memory) {\r\n        User memory user = users[_user];\r\n        return (user.name, user.birthDate);\r\n    }\r\n}\r\n",
  "sourcePath": "C:\\Users\\Lenovo\\OneDrive\\Desktop\\New Folder\\netapp\\kyc-blockchain\\contracts\\KYCStorage.sol",
  "compiler": {
    "name": "solc",
    "version": "0.8.13+commit.abaa5c0e.Emscripten.clang"
  },
  "schemaVersion": "3.4.16",
  "updatedAt": "2024-05-30T17:58:51.475Z",
  "networkType": "ethereum",
  "devdoc": {
    "kind": "dev",
    "methods": {},
    "version": 1
  },
  "userdoc": {
    "kind": "user",
    "methods": {},
    "version": 1
  }
}