{
  "contractName": "KYCStorage",
  "abi": [
    {
      "inputs": [
        {
          "internalType": "address",
          "name": "",
          "type": "address"
        }
      ],
      "name": "kycRecords",
      "outputs": [
        {
          "internalType": "string",
          "name": "name",
          "type": "string"
        },
        {
          "internalType": "string",
          "name": "birthDate",
          "type": "string"
        }
      ],
      "stateMutability": "view",
      "type": "function"
    },
    {
      "inputs": [
        {
          "internalType": "string",
          "name": "_name",
          "type": "string"
        },
        {
          "internalType": "string",
          "name": "_birthDate",
          "type": "string"
        }
      ],
      "name": "storeKYC",
      "outputs": [],
      "stateMutability": "nonpayable",
      "type": "function"
    },
    {
      "inputs": [
        {
          "internalType": "address",
          "name": "_user",
          "type": "address"
        }
      ],
      "name": "getKYC",
      "outputs": [
        {
          "internalType": "string",
          "name": "",
          "type": "string"
        },
        {
          "internalType": "string",
          "name": "",
          "type": "string"
        }
      ],
      "stateMutability": "view",
      "type": "function"
    }
  ],
  "bytecode": "0x608060405234801561000f575f80fd5b506109ec8061001d5f395ff3fe608060405234801561000f575f80fd5b506004361061003f575f3560e01c80634d1a687d146100435780637eb606e814610074578063e70d863c146100a5575b5f80fd5b61005d60048036038101906100589190610458565b6100c1565b60405161006b92919061050d565b60405180910390f35b61008e60048036038101906100899190610458565b610240565b60405161009c92919061050d565b60405180910390f35b6100bf60048036038101906100ba919061066e565b61036b565b005b6060805f805f8573ffffffffffffffffffffffffffffffffffffffff1673ffffffffffffffffffffffffffffffffffffffff1681526020019081526020015f206040518060400160405290815f8201805461011b90610711565b80601f016020809104026020016040519081016040528092919081815260200182805461014790610711565b80156101925780601f1061016957610100808354040283529160200191610192565b820191905f5260205f20905b81548152906001019060200180831161017557829003601f168201915b505050505081526020016001820180546101ab90610711565b80601f01602080910402602001604051908101604052809291908181526020018280546101d790610711565b80156102225780601f106101f957610100808354040283529160200191610222565b820191905f5260205f20905b81548152906001019060200180831161020557829003601f168201915b5050505050815250509050805f015181602001519250925050915091565b5f602052805f5260405f205f91509050805f01805461025e90610711565b80601f016020809104026020016040519081016040528092919081815260200182805461028a90610711565b80156102d55780601f106102ac576101008083540402835291602001916102d5565b820191905f5260205f20905b8154815290600101906020018083116102b857829003601f168201915b5050505050908060010180546102ea90610711565b80601f016020809104026020016040519081016040528092919081815260200182805461031690610711565b80156103615780601f1061033857610100808354040283529160200191610361565b820191905f5260205f20905b81548152906001019060200180831161034457829003601f168201915b5050505050905082565b6040518060400160405280838152602001828152505f803373ffffffffffffffffffffffffffffffffffffffff1673ffffffffffffffffffffffffffffffffffffffff1681526020019081526020015f205f820151815f0190816103cf91906108e7565b5060208201518160010190816103e591906108e7565b509050505050565b5f604051905090565b5f80fd5b5f80fd5b5f73ffffffffffffffffffffffffffffffffffffffff82169050919050565b5f610427826103fe565b9050919050565b6104378161041d565b8114610441575f80fd5b50565b5f813590506104528161042e565b92915050565b5f6020828403121561046d5761046c6103f6565b5b5f61047a84828501610444565b91505092915050565b5f81519050919050565b5f82825260208201905092915050565b5f5b838110156104ba57808201518184015260208101905061049f565b5f8484015250505050565b5f601f19601f8301169050919050565b5f6104df82610483565b6104e9818561048d565b93506104f981856020860161049d565b610502816104c5565b840191505092915050565b5f6040820190508181035f83015261052581856104d5565b9050818103602083015261053981846104d5565b90509392505050565b5f80fd5b5f80fd5b7f4e487b71000000000000000000000000000000000000000000000000000000005f52604160045260245ffd5b610580826104c5565b810181811067ffffffffffffffff8211171561059f5761059e61054a565b5b80604052505050565b5f6105b16103ed565b90506105bd8282610577565b919050565b5f67ffffffffffffffff8211156105dc576105db61054a565b5b6105e5826104c5565b9050602081019050919050565b828183375f83830152505050565b5f61061261060d846105c2565b6105a8565b90508281526020810184848401111561062e5761062d610546565b5b6106398482856105f2565b509392505050565b5f82601f83011261065557610654610542565b5b8135610665848260208601610600565b91505092915050565b5f8060408385031215610684576106836103f6565b5b5f83013567ffffffffffffffff8111156106a1576106a06103fa565b5b6106ad85828601610641565b925050602083013567ffffffffffffffff8111156106ce576106cd6103fa565b5b6106da85828601610641565b9150509250929050565b7f4e487b71000000000000000000000000000000000000000000000000000000005f52602260045260245ffd5b5f600282049050600182168061072857607f821691505b60208210810361073b5761073a6106e4565b5b50919050565b5f819050815f5260205f209050919050565b5f6020601f8301049050919050565b5f82821b905092915050565b5f6008830261079d7fffffffffffffffffffffffffffffffffffffffffffffffffffffffffffffffff82610762565b6107a78683610762565b95508019841693508086168417925050509392505050565b5f819050919050565b5f819050919050565b5f6107eb6107e66107e1846107bf565b6107c8565b6107bf565b9050919050565b5f819050919050565b610804836107d1565b610818610810826107f2565b84845461076e565b825550505050565b5f90565b61082c610820565b6108378184846107fb565b505050565b5b8181101561085a5761084f5f82610824565b60018101905061083d565b5050565b601f82111561089f5761087081610741565b61087984610753565b81016020851015610888578190505b61089c61089485610753565b83018261083c565b50505b505050565b5f82821c905092915050565b5f6108bf5f19846008026108a4565b1980831691505092915050565b5f6108d783836108b0565b9150826002028217905092915050565b6108f082610483565b67ffffffffffffffff8111156109095761090861054a565b5b6109138254610711565b61091e82828561085e565b5f60209050601f83116001811461094f575f841561093d578287015190505b61094785826108cc565b8655506109ae565b601f19841661095d86610741565b5f5b828110156109845784890151825560018201915060208501945060208101905061095f565b868310156109a1578489015161099d601f8916826108b0565b8355505b6001600288020188555050505b50505050505056fea2646970667358221220289dd0b5ae4279193588726ee6f1ffb35aaa33b78831f48360214b631399d7ac64736f6c63430008150033",
  "immutableReferences": {},
  "source": "// contracts/KYCStorage.sol\r\n\r\n// SPDX-License-Identifier: MIT\r\npragma solidity ^0.8.0;\r\n\r\ncontract KYCStorage {\r\n    struct KYC {\r\n        string name;\r\n        string birthDate;\r\n    }\r\n\r\n    mapping(address => KYC) public kycRecords;\r\n\r\n    function storeKYC(string memory _name, string memory _birthDate) public {\r\n        kycRecords[msg.sender] = KYC(_name, _birthDate);\r\n    }\r\n\r\n    function getKYC(address _user) public view returns (string memory, string memory) {\r\n        KYC memory kyc = kycRecords[_user];\r\n        return (kyc.name, kyc.birthDate);\r\n    }\r\n}\r\n",
  "sourcePath": "C:\\Users\\Lenovo\\OneDrive\\Desktop\\New Folder\\netapp\\kyc-blockchain\\contracts\\KYCStorage.sol",
  "compiler": {
    "name": "solc",
    "version": "0.8.21+commit.d9974bed.Emscripten.clang"
  },
  "schemaVersion": "3.4.16",
  "updatedAt": "2024-05-30T16:58:36.790Z",
  "devdoc": {
    "kind": "dev",
    "methods": {},
    "version": 1
  },
  "userdoc": {
    "kind": "user",
    "methods": {},
    "version": 1
  }
}